{
  "contractName": "DeliveryHub",
  "abi": [
    {
      "inputs": [],
      "payable": false,
      "stateMutability": "nonpayable",
      "type": "constructor"
    },
    {
      "anonymous": false,
      "inputs": [
        {
          "indexed": true,
          "internalType": "address",
          "name": "_account",
          "type": "address"
        }
      ],
      "name": "DeliveryHubAdded",
      "type": "event"
    },
    {
      "anonymous": false,
      "inputs": [
        {
          "indexed": true,
          "internalType": "address",
          "name": "_account",
          "type": "address"
        }
      ],
      "name": "DeliveryHubRemoved",
      "type": "event"
    },
    {
      "constant": true,
      "inputs": [
        {
          "internalType": "address",
          "name": "_account",
          "type": "address"
        }
      ],
      "name": "isDeliveryHub",
      "outputs": [
        {
          "internalType": "bool",
          "name": "",
          "type": "bool"
        }
      ],
      "payable": false,
      "stateMutability": "view",
      "type": "function"
    },
    {
      "constant": false,
      "inputs": [
        {
          "internalType": "address",
          "name": "_account",
          "type": "address"
        }
      ],
      "name": "addDeliveryHub",
      "outputs": [],
      "payable": false,
      "stateMutability": "nonpayable",
      "type": "function"
    },
    {
      "constant": false,
      "inputs": [],
      "name": "removeDeliveryHub",
      "outputs": [],
      "payable": false,
      "stateMutability": "nonpayable",
      "type": "function"
    }
  ],
  "bytecode": "0x608060405234801561001057600080fd5b5061002933600061005960201b6101601790919060201c565b60405133907f7c7d3c0481283aac66b37eb8de2141707e4f9c9e106b19e5088ef166240c406690600090a26100e3565b6001600160a01b03811661006c57600080fd5b61007f82826001600160e01b036100ae16565b1561008957600080fd5b6001600160a01b0316600090815260209190915260409020805460ff19166001179055565b60006001600160a01b0382166100c357600080fd5b506001600160a01b03166000908152602091909152604090205460ff1690565b61025e806100f26000396000f3fe608060405234801561001057600080fd5b50600436106100415760003560e01c8063078bbf201461004657806310bf30711461006e5780637bb7916a14610076575b600080fd5b61006c6004803603602081101561005c57600080fd5b50356001600160a01b03166100b0565b005b61006c61010a565b61009c6004803603602081101561008c57600080fd5b50356001600160a01b0316610148565b604080519115158252519081900360200190f35b6100b933610148565b6100c257600080fd5b6100d360008263ffffffff61016016565b6040516001600160a01b038216907f7c7d3c0481283aac66b37eb8de2141707e4f9c9e106b19e5088ef166240c406690600090a250565b61011b60003363ffffffff6101ac16565b60405133907f4a05cf4e528c1f96beb8d7f59dbc17bfe48935baaef1fa0126b81e1ddaafec3090600090a2565b600061015a818363ffffffff6101f416565b92915050565b6001600160a01b03811661017357600080fd5b61017d82826101f4565b1561018757600080fd5b6001600160a01b0316600090815260209190915260409020805460ff19166001179055565b6001600160a01b0381166101bf57600080fd5b6101c982826101f4565b6101d257600080fd5b6001600160a01b0316600090815260209190915260409020805460ff19169055565b60006001600160a01b03821661020957600080fd5b506001600160a01b03166000908152602091909152604090205460ff169056fea265627a7a72315820de0d94adf7dd8a661286c69f530a557993a748c76127bf8049bc6da504bd4ebf64736f6c63430005100032",
  "source": "// SPDX-License-Identifier: MIT\r\npragma solidity >=0.4.21 <0.9.0;\r\n\r\nimport \"./Roles.sol\";\r\n\r\ncontract DeliveryHub {\r\n  using Roles for Roles.Role;\r\n\r\n  event DeliveryHubAdded(address indexed _account);\r\n  event DeliveryHubRemoved(address indexed _account);\r\n\r\n  Roles.Role private deliveryHubsList;\r\n\r\n  constructor() public {\r\n    deliveryHubsList.addRole(msg.sender);\r\n    emit DeliveryHubAdded(msg.sender);\r\n  }\r\n\r\n  ///@dev Modifiers for DeliveryHub.\r\n  modifier onlyDeliveryHub() {\r\n    require(isDeliveryHub(msg.sender));\r\n    _;\r\n  }\r\n  /*-----------------------------*/\r\n\r\n  ///@dev DeliveryHub Utility functions.\r\n  function isDeliveryHub(address _account) public view returns (bool) {\r\n    return deliveryHubsList.hasRole(_account);\r\n  }\r\n\r\n  function addDeliveryHub(address _account) public onlyDeliveryHub {\r\n    deliveryHubsList.addRole(_account);\r\n    emit DeliveryHubAdded(_account);\r\n  }\r\n\r\n  function removeDeliveryHub() public {\r\n    deliveryHubsList.removeRole(msg.sender);\r\n    emit DeliveryHubRemoved(msg.sender);\r\n  }\r\n  /*-----------------------------*/\r\n\r\n}\r\n",
  "sourcePath": "C:\\Users\\Timgad informatique\\Downloads\\PRODUCT-SUPPLYCHAIN-ETH (1)\\PRODUCT-SUPPLYCHAIN-ETH\\contracts\\rolesUtils[deprecated]\\DeliveryHub.sol",
  "compiler": {
    "name": "solc",
    "version": "0.5.16+commit.9c3226ce.Emscripten.clang"
  },
  "schemaVersion": "3.4.14",
  "updatedAt": "2023-07-05T16:17:38.622Z",
  "devdoc": {
    "methods": {
      "isDeliveryHub(address)": {
        "details": "DeliveryHub Utility functions."
      }
    }
  },
  "userdoc": {
    "methods": {}
  }
}